:100000000C9446000C9463000C9463000C94630001
:100010000C9463000C9463000C9463000C946300D4
:100020000C9463000C9463000C9463000C946300C4
:100030000C9463000C9463000C9463000C946300B4
:100040000C9463000C9463000C9463000C946300A4
:100050000C9463000C9463000C9463000C94630094
:100060000C9463000C9463000C9463000C94630084
:100070000C9463000C9463000C9463000C94630074
:100080000C9463000C9463000C94630011241FBE55
:10009000CFEFD0E1DEBFCDBF11E0A0E0B1E0E2E202
:1000A000FBE002C005900D92AA37B107D9F711E025
:1000B000AAE7B1E001C01D92A138B107E1F70E94A3
:1000C00032020C948F050C94000087E6809399000F
:1000D00088E080939A001092710088E48093700009
:1000E00008951F93182F8A3029F48DE060E070E0A6
:1000F0000E94710080919B0085FFFCCF10939C00B3
:1001000080E090E01F910895A82FFA019770990F51
:10011000492F406A80917A0120E054EA34E8916ADC
:100120002F5F293C79F0509374008091740087FF11
:10013000FCCF80917100887F803149F0883399F33A
:10014000883029F080937A012FEF3FEF77C04093FA
:100150007300309374008091740087FFFCCF80910E
:100160007100887F8032E1F28833E9F28831C1F58D
:10017000A0937300309374008091740087FFFCCFCC
:1001800080917100887F803331F1883361F2883249
:1001900039F5509374008091740087FFFCCF8091F3
:1001A0007100887F803129F0883309F4BCCF883012
:1001B000B9F490937300309374008091740087FFBA
:1001C000FCCF80917100887F803469F0883419F009
:1001D000883331F4A8CF80937A0120E030E02BC03F
:1001E00080937A0119C080937A0194EC20E030E08A
:1001F0001FC06130710509F494E8909374008091F8
:10020000740087FFFCCF80917100887F80937A0112
:10021000803539F0883519F02FEF3FEF0CC060E0E2
:1002200070E08091730081932F5F3F4F6150704069
:1002300016161706F4F284E980937400C901089534
:10024000FC01DA01680F791F9C01276062177307B0
:1002500018F0B9016F5F7F4F9F2F9770990F906AC9
:1002600080917A0120E044EA34E82F5F293C79F05C
:10027000409374008091740087FFFCCF80917100DF
:10028000887F803149F0883399F3883029F0809352
:100290007A012FEF3FEF52C09093730030937400B8
:1002A0008091740087FFFCCF80917100887F80323D
:1002B000E1F28833E9F28831B9F4E09373003093C6
:1002C00074008091740087FFFCCF80917100887F5B
:1002D000803329F0883361F2883231F408C080938A
:1002E0007A0120E030E027C080937A0118C0809323
:1002F0007A016E1B7F0B20E030E044E816C08C9141
:1003000080937300409374008091740087FFFCCF4A
:1003100080917100887F80937A01883219F02FEFE5
:100320003FEF09C011962F5F3F4FCB01821B930B0C
:100330001816190624F384E980937400C9010895FE
:100340006F927F928F929F92AF92BF92CF92DF92E5
:10035000EF92FF920F931F93CF93DF935C018B017A
:100360006A01EE24FF2490E0692E91E0792E86E266
:10037000882E81E0982E8DB79EB708970FB6F89417
:100380009EBF0FBE8DBFEDB7FEB73196ADB7BEB7FE
:1003900012967C926E921197B382A2821583048387
:1003A000D782C6820E94F202EDB7FEB738960FB62A
:1003B000F894FEBF0FBEEDBFC501B801A6010E94B3
:1003C0002001EC0100D000D0ADB7BEB712969C92D0
:1003D0008E92119714969C938E9313970E94F2021B
:1003E0000F900F900F900F90BFEFCF3FDB0761F0A2
:1003F0000C1B1D0BEC0EFD1E1016110644F4AC0E6A
:10040000BD1ECC0EDD1EB7CFEE24EA94FE2CC70134
:10041000DF91CF911F910F91FF90EF90DF90CF90E0
:10042000BF90AF909F908F907F906F90089500D075
:1004300000D0EDB7FEB731968EE291E0ADB7BEB712
:1004400012969C938E93119780917A0182831382E6
:100450000E94F2020F900F900F900F9080E090E0BA
:100460000E948F054F925F926F927F928F929F9220
:10047000AF92BF92CF92DF92FF920F931F93DF93C1
:10048000CF93CDB7DEB760970FB6F894DEBF0FBE3F
:10049000CDBF87E68093990088E080939A00109200
:1004A000710088E4809370008BE691E090937E0168
:1004B00080937D01CC24DD2445E4442E41E0542E7C
:1004C0005E010894A11CB11C3DE4632E31E0732E43
:1004D00025E6822E21E0922E00D000D0EDB7FEB7A7
:1004E00052824182D482C3820E94F2020F900F9006
:1004F0000F900F90C60160E170E0A5010E9484009A
:100500008C011816190614F00E941702003111050B
:1005100074F400D000D0EDB7FEB77282618214830C
:1005200003830E94F2020F900F900F900F90C00E65
:10053000D11EFF2417C000D000D02DB73EB72F5FCB
:100540003F4FEDB7FEB792828182AA0DBB1D8C9101
:10055000F901828313820E94F202F3940F900F90AC
:100560000F900F90AF2DB0E0A017B10724F360916A
:100570007D0170917E018AE090E00E94C602FFEF4B
:10058000CF16D10409F008F4A7CFFFCF0F931F9324
:10059000CF93DF938C01EB018B8181FF1BC082FF26
:1005A0000DC02E813F818C819D812817390764F40D
:1005B000E881F9810193F983E88306C0E885F9852C
:1005C000802F0995892B31F48E819F8101969F831D
:1005D0008E8302C00FEF1FEFC801DF91CF911F91F3
:1005E0000F910895A0E0B0E0E8EFF2E00C94680508
:1005F000FE0135966191719180917D0190917E010E
:10060000AF010E9407032096E2E00C948405ABE062
:10061000B0E0EDE0F3E00C9458053C012B015A01E9
:10062000FC0117821682838181FD03C06FEF7FEF8B
:10063000C6C19AE0892E1E010894211C311CF301C9
:100640002381F20123FD859123FF81912F018823CE
:1006500009F4B2C1853239F423FD859123FF8191DC
:100660002F01853229F490E0B3010E94C602E7CF42
:10067000982FFF24EE249924FFE1FF15D0F09B3240
:1006800069F09C3228F4903259F0933291F40EC004
:100690009D3249F0903369F441E024C052E0F52ADC
:1006A00084E0F82A28C098E0F92A25C0E0E1FE2A73
:1006B00022C0F7FC29C0892F80538A3070F4F6FEDF
:1006C00005C0989C902C1124980E15C0E89CE02C35
:1006D0001124E80EF0E2FF2A0EC09E3229F4F6FC47
:1006E0006BC140E4F42A07C09C3619F450E8F52A9F
:1006F00002C0983649F4F20123FD959123FF9191B0
:100700002F01992309F0B8CF892F8554833018F031
:100710008052833038F444E050E0A40EB51E5FE30D
:1007200059830FC0933631F0933779F0933509F040
:1007300056C020C0F5018081898342E050E0A40EBC
:10074000B51E610101E010E012C0F501C080D1804A
:10075000F6FC03C06FEF7FEF02C0692D70E042E04E
:1007600050E0A40EB51EC6010E94EF048C015FE7A5
:10077000F52214C0F501C080D180F6FC03C06FEFF4
:100780007FEF02C0692D70E042E050E0A40EB51E7C
:10079000C6010E94E4048C0150E8F52AF3FE07C06C
:1007A0001AC080E290E0B3010E94C602EA948E2D46
:1007B00090E008171907A8F30EC0F601F7FC859121
:1007C000F7FE81916F0190E0B3010E94C602E11033
:1007D000EA94015010400115110579F7EAC09436EA
:1007E00011F0993669F5F7FE08C0F50120813181D5
:1007F0004281538184E090E00AC0F50180819181BB
:100800009C01442737FD4095542F82E090E0A80ECC
:10081000B91E9FE6F92257FF09C0509540953095C3
:1008200021953F4F4F4F5F4FE0E8FE2ACA01B901C3
:10083000A1012AE030E00E94FA04D82ED21840C06C
:10084000953729F41F2D1F7E2AE030E01DC01F2D93
:10085000197F9F3661F0903720F4983509F0ACC0CD
:100860000FC0903739F0983709F0A6C004C028E0CF
:1008700030E00AC0106114FD146020E130E004C0D3
:1008800014FD166020E132E017FF08C0F501608119
:1008900071818281938144E050E008C0F50180813C
:1008A0009181BC0180E090E042E050E0A40EB51ED2
:1008B000A1010E94FA04D82ED2188FE7F82EF12257
:1008C000F6FE0BC05EEFF522D91438F4F4FE07C033
:1008D000F2FC05C08FEEF82202C01D2D01C0192DBB
:1008E000F4FE0DC0FE01ED0DF11D8081803319F481
:1008F00099EEF92208C01F5FF2FE05C003C08F2DDC
:10090000867809F01F5F0F2DF3FC14C0F0FE0FC0B6
:100910001E1510F09D2C0BC09D2C9E0C911A1E2DA7
:1009200006C080E290E0B3010E94C6021F5F1E1560
:10093000C0F304C01E1510F4E11A01C0EE2404FF38
:100940000FC080E390E0B3010E94C60202FF1DC009
:1009500001FD03C088E790E00EC088E590E00BC081
:10096000802F867891F001FF02C08BE201C080E207
:10097000F7FC8DE290E0B3010E94C60206C080E35E
:1009800090E0B3010E94C6029A94D914C0F3DA949D
:10099000F101ED0DF11D808190E0B3010E94C602CE
:1009A000DD20A9F706C080E290E0B3010E94C602F4
:1009B000EA94EE20C1F743CEF30166817781CB0143
:1009C0002B96E2E10C947405FC0105906150704097
:1009D0000110D8F7809590958E0F9F1F0895FC0108
:1009E0006150704001900110D8F7809590958E0F5E
:1009F0009F1F0895FA01AA27283051F1203181F173
:100A0000E8946F936E7F6E5F7F4F8F4F9F4FAF4F16
:100A1000B1E03ED0B4E03CD0670F781F891F9A1F29
:100A2000A11D680F791F8A1F911DA11D6A0F711DDD
:100A3000811D911DA11D20D009F468943F912AE0E9
:100A4000269F11243019305D3193DEF6CF010895D1
:100A5000462F4770405D4193B3E00FD0C9F7F6CF02
:100A6000462F4F70405D4A3318F0495D31FD4052CA
:100A7000419302D0A9F7EACFB4E0A6959795879560
:100A800077956795BA95C9F700976105710508953F
:100A90009B01AC010A2E06945795479537952795EB
:100AA000BA95C9F7620F731F841F951FA01D089583
:100AB0002F923F924F925F926F927F928F929F926E
:100AC000AF92BF92CF92DF92EF92FF920F931F935C
:100AD000CF93DF93CDB7DEB7CA1BDB0B0FB6F8940D
:100AE000DEBF0FBECDBF09942A88398848885F844D
:100AF0006E847D848C849B84AA84B984C884DF80BE
:100B0000EE80FD800C811B81AA81B981CE0FD11DA1
:100B10000FB6F894DEBF0FBECDBFED010895F89477
:020B2000FFCF05
:100B220043616C6C696E67206565323478785F77F3
:100B3200726974655F706167652825642C2025647D
:100B42002C2025702900203D3E2025640A00657274
:100B5200726F723A2054574920737461747573200E
:100B62002523780A0025233034783A2000776172F1
:100B72006E696E673A2073686F7274207265616481
:100B82002025640A0025303278200000000002008F
:0A0B920000000071000000000000E8
:00000001FF
